{
  "contractName": "Lottery",
  "abi": [
    {
      "inputs": [
        {
          "internalType": "address payable",
          "name": "_beneficiary",
          "type": "address"
        },
        {
          "internalType": "uint256[]",
          "name": "_winningRatios",
          "type": "uint256[]"
        }
      ],
      "stateMutability": "nonpayable",
      "type": "constructor"
    },
    {
      "anonymous": false,
      "inputs": [
        {
          "indexed": false,
          "internalType": "address",
          "name": "addr",
          "type": "address"
        },
        {
          "indexed": false,
          "internalType": "uint256",
          "name": "totalWinning",
          "type": "uint256"
        }
      ],
      "name": "LotteryWinning",
      "type": "event"
    },
    {
      "inputs": [],
      "name": "beneficiary",
      "outputs": [
        {
          "internalType": "address payable",
          "name": "",
          "type": "address"
        }
      ],
      "stateMutability": "view",
      "type": "function",
      "constant": true
    },
    {
      "inputs": [
        {
          "internalType": "uint256",
          "name": "",
          "type": "uint256"
        }
      ],
      "name": "boughtBuyerAddresses",
      "outputs": [
        {
          "internalType": "address",
          "name": "",
          "type": "address"
        }
      ],
      "stateMutability": "view",
      "type": "function",
      "constant": true
    },
    {
      "inputs": [
        {
          "internalType": "uint256",
          "name": "",
          "type": "uint256"
        }
      ],
      "name": "boughtNumbers",
      "outputs": [
        {
          "internalType": "uint256",
          "name": "",
          "type": "uint256"
        }
      ],
      "stateMutability": "view",
      "type": "function",
      "constant": true
    },
    {
      "inputs": [],
      "name": "drawResultDeadline",
      "outputs": [
        {
          "internalType": "uint256",
          "name": "",
          "type": "uint256"
        }
      ],
      "stateMutability": "view",
      "type": "function",
      "constant": true
    },
    {
      "inputs": [
        {
          "internalType": "uint256",
          "name": "",
          "type": "uint256"
        }
      ],
      "name": "drawResults",
      "outputs": [
        {
          "internalType": "uint256",
          "name": "",
          "type": "uint256"
        }
      ],
      "stateMutability": "view",
      "type": "function",
      "constant": true
    },
    {
      "inputs": [
        {
          "internalType": "address",
          "name": "",
          "type": "address"
        },
        {
          "internalType": "uint256",
          "name": "",
          "type": "uint256"
        }
      ],
      "name": "lotteryTicketsByAddress",
      "outputs": [
        {
          "internalType": "uint256",
          "name": "number",
          "type": "uint256"
        },
        {
          "internalType": "uint256",
          "name": "amount",
          "type": "uint256"
        }
      ],
      "stateMutability": "view",
      "type": "function",
      "constant": true
    },
    {
      "inputs": [
        {
          "internalType": "uint256",
          "name": "",
          "type": "uint256"
        },
        {
          "internalType": "uint256",
          "name": "",
          "type": "uint256"
        }
      ],
      "name": "lotteryTicketsByNumber",
      "outputs": [
        {
          "internalType": "address",
          "name": "buyer",
          "type": "address"
        },
        {
          "internalType": "uint256",
          "name": "amount",
          "type": "uint256"
        }
      ],
      "stateMutability": "view",
      "type": "function",
      "constant": true
    },
    {
      "inputs": [],
      "name": "state",
      "outputs": [
        {
          "internalType": "enum Lottery.State",
          "name": "",
          "type": "uint8"
        }
      ],
      "stateMutability": "view",
      "type": "function",
      "constant": true
    },
    {
      "inputs": [],
      "name": "totalFund",
      "outputs": [
        {
          "internalType": "uint256",
          "name": "",
          "type": "uint256"
        }
      ],
      "stateMutability": "view",
      "type": "function",
      "constant": true
    },
    {
      "inputs": [
        {
          "internalType": "uint256",
          "name": "",
          "type": "uint256"
        }
      ],
      "name": "winningRatios",
      "outputs": [
        {
          "internalType": "uint256",
          "name": "",
          "type": "uint256"
        }
      ],
      "stateMutability": "view",
      "type": "function",
      "constant": true
    },
    {
      "inputs": [],
      "name": "beforeDeadline",
      "outputs": [
        {
          "internalType": "bool",
          "name": "",
          "type": "bool"
        }
      ],
      "stateMutability": "view",
      "type": "function",
      "constant": true
    },
    {
      "inputs": [
        {
          "internalType": "uint256[]",
          "name": "results",
          "type": "uint256[]"
        }
      ],
      "name": "finishResultDrawing",
      "outputs": [],
      "stateMutability": "nonpayable",
      "type": "function"
    },
    {
      "inputs": [
        {
          "internalType": "uint256",
          "name": "winningRatio",
          "type": "uint256"
        },
        {
          "internalType": "uint256",
          "name": "amount",
          "type": "uint256"
        },
        {
          "internalType": "address",
          "name": "buyerAddress",
          "type": "address"
        }
      ],
      "name": "distributePrize",
      "outputs": [],
      "stateMutability": "nonpayable",
      "type": "function"
    },
    {
      "inputs": [
        {
          "internalType": "uint256",
          "name": "bettingNumber",
          "type": "uint256"
        }
      ],
      "name": "buyLotteryTicket",
      "outputs": [],
      "stateMutability": "payable",
      "type": "function",
      "payable": true
    },
    {
      "inputs": [],
      "name": "putFunding",
      "outputs": [],
      "stateMutability": "payable",
      "type": "function",
      "payable": true
    },
    {
      "inputs": [
        {
          "internalType": "uint256",
          "name": "amount",
          "type": "uint256"
        }
      ],
      "name": "withdrawFromFunding",
      "outputs": [],
      "stateMutability": "nonpayable",
      "type": "function"
    },
    {
      "inputs": [],
      "name": "setCompletedState",
      "outputs": [],
      "stateMutability": "nonpayable",
      "type": "function"
    },
    {
      "inputs": [
        {
          "internalType": "uint256",
          "name": "_drawResultDeadline",
          "type": "uint256"
        }
      ],
      "name": "setDrawResultDeadline",
      "outputs": [],
      "stateMutability": "nonpayable",
      "type": "function"
    },
    {
      "inputs": [
        {
          "internalType": "uint256",
          "name": "bettingNumber",
          "type": "uint256"
        }
      ],
      "name": "getLotteryTicketsForBettingNumber",
      "outputs": [
        {
          "components": [
            {
              "internalType": "address",
              "name": "buyer",
              "type": "address"
            },
            {
              "internalType": "uint256",
              "name": "amount",
              "type": "uint256"
            }
          ],
          "internalType": "struct Lottery.LotteryTicketByNumber[]",
          "name": "",
          "type": "tuple[]"
        }
      ],
      "stateMutability": "view",
      "type": "function",
      "constant": true
    },
    {
      "inputs": [
        {
          "internalType": "address",
          "name": "buyerAddress",
          "type": "address"
        }
      ],
      "name": "getLotteryTicketsForAddress",
      "outputs": [
        {
          "components": [
            {
              "internalType": "uint256",
              "name": "number",
              "type": "uint256"
            },
            {
              "internalType": "uint256",
              "name": "amount",
              "type": "uint256"
            }
          ],
          "internalType": "struct Lottery.LotteryTicketByAddress[]",
          "name": "",
          "type": "tuple[]"
        }
      ],
      "stateMutability": "view",
      "type": "function",
      "constant": true
    },
    {
      "inputs": [],
      "name": "getDrawResults",
      "outputs": [
        {
          "internalType": "uint256[]",
          "name": "",
          "type": "uint256[]"
        }
      ],
      "stateMutability": "view",
      "type": "function",
      "constant": true
    },
    {
      "inputs": [],
      "name": "getWinningRatios",
      "outputs": [
        {
          "internalType": "uint256[]",
          "name": "",
          "type": "uint256[]"
        }
      ],
      "stateMutability": "view",
      "type": "function",
      "constant": true
    },
    {
      "inputs": [],
      "name": "reset",
      "outputs": [],
      "stateMutability": "nonpayable",
      "type": "function"
    }
  ],
  "bytecode": "0x60806040523480156200001157600080fd5b50604051620026bb380380620026bb833981810160405281019062000037919062000361565b81600860016101000a81548173ffffffffffffffffffffffffffffffffffffffff021916908373ffffffffffffffffffffffffffffffffffffffff1602179055506000600860006101000a81548160ff02191690836001811115620000a157620000a0620003c7565b5b02179055508060019080519060200190620000be929190620000c7565b505050620003f6565b82805482825590600052602060002090810192821562000106579160200282015b8281111562000105578251825591602001919060010190620000e8565b5b50905062000115919062000119565b5090565b5b80821115620001345760008160009055506001016200011a565b5090565b6000604051905090565b600080fd5b600080fd5b600073ffffffffffffffffffffffffffffffffffffffff82169050919050565b600062000179826200014c565b9050919050565b6200018b816200016c565b81146200019757600080fd5b50565b600081519050620001ab8162000180565b92915050565b600080fd5b6000601f19601f8301169050919050565b7f4e487b7100000000000000000000000000000000000000000000000000000000600052604160045260246000fd5b6200020182620001b6565b810181811067ffffffffffffffff82111715620002235762000222620001c7565b5b80604052505050565b60006200023862000138565b9050620002468282620001f6565b919050565b600067ffffffffffffffff821115620002695762000268620001c7565b5b602082029050602081019050919050565b600080fd5b6000819050919050565b62000294816200027f565b8114620002a057600080fd5b50565b600081519050620002b48162000289565b92915050565b6000620002d1620002cb846200024b565b6200022c565b90508083825260208201905060208402830185811115620002f757620002f66200027a565b5b835b818110156200032457806200030f8882620002a3565b845260208401935050602081019050620002f9565b5050509392505050565b600082601f830112620003465762000345620001b1565b5b815162000358848260208601620002ba565b91505092915050565b600080604083850312156200037b576200037a62000142565b5b60006200038b858286016200019a565b925050602083015167ffffffffffffffff811115620003af57620003ae62000147565b5b620003bd858286016200032e565b9150509250929050565b7f4e487b7100000000000000000000000000000000000000000000000000000000600052602160045260246000fd5b6122b580620004066000396000f3fe6080604052600436106101405760003560e01c806390075f9f116100b6578063ce3e0bd71161006f578063ce3e0bd714610452578063d0584bfb1461048f578063d826f88f146104cd578063e57c9104146104e4578063ea2ea0851461050d578063ecb3627f1461054a57610140565b806390075f9f146103435780639476dac61461036c5780639ad19eb914610383578063aed13a5d146103c0578063c19d93fb146103e9578063c1c97b221461041457610140565b806368bc00411161010857806368bc00411461022c5780636cbaa5c6146102575780637212ba301461027357806377ca752c146102b057806381797700146102db5780638520837c1461031857610140565b8063100aca471461014557806332afa50f14610170578063334b2a001461019b57806338af3eed146101c45780634848b344146101ef575b600080fd5b34801561015157600080fd5b5061015a610554565b60405161016791906114a8565b60405180910390f35b34801561017c57600080fd5b5061018561055a565b6040516101929190611581565b60405180910390f35b3480156101a757600080fd5b506101c260048036038101906101bd9190611641565b6105b2565b005b3480156101d057600080fd5b506101d961072a565b6040516101e691906116b5565b60405180910390f35b3480156101fb57600080fd5b50610216600480360381019061021191906116d0565b610750565b604051610223919061170c565b60405180910390f35b34801561023857600080fd5b5061024161078f565b60405161024e9190611742565b60405180910390f35b610271600480360381019061026c91906116d0565b61079b565b005b34801561027f57600080fd5b5061029a600480360381019061029591906116d0565b610aa8565b6040516102a791906114a8565b60405180910390f35b3480156102bc57600080fd5b506102c5610acc565b6040516102d29190611581565b60405180910390f35b3480156102e757600080fd5b5061030260048036038101906102fd919061175d565b610b24565b60405161030f9190611868565b60405180910390f35b34801561032457600080fd5b5061032d610bd6565b60405161033a91906114a8565b60405180910390f35b34801561034f57600080fd5b5061036a600480360381019061036591906116d0565b610bdc565b005b34801561037857600080fd5b50610381610be6565b005b34801561038f57600080fd5b506103aa60048036038101906103a591906116d0565b610c13565b6040516103b791906114a8565b60405180910390f35b3480156103cc57600080fd5b506103e760048036038101906103e291906116d0565b610c37565b005b3480156103f557600080fd5b506103fe610d60565b60405161040b9190611901565b60405180910390f35b34801561042057600080fd5b5061043b6004803603810190610436919061191c565b610d73565b60405161044992919061195c565b60405180910390f35b34801561045e57600080fd5b50610479600480360381019061047491906116d0565b610dd4565b6040516104869190611a72565b60405180910390f35b34801561049b57600080fd5b506104b660048036038101906104b19190611a94565b610ea6565b6040516104c4929190611ad4565b60405180910390f35b3480156104d957600080fd5b506104e2610ee7565b005b3480156104f057600080fd5b5061050b60048036038101906105069190611c56565b61102f565b005b34801561051957600080fd5b50610534600480360381019061052f91906116d0565b611310565b60405161054191906114a8565b60405180910390f35b610552611334565b005b60065481565b606060008054806020026020016040519081016040528092919081815260200182805480156105a857602002820191906000526020600020905b815481526020019060010190808311610594575b5050505050905090565b60018060018111156105c7576105c661188a565b5b600860009054906101000a900460ff1660018111156105e9576105e861188a565b5b14610629576040517f08c379a000000000000000000000000000000000000000000000000000000000815260040161062090611cfc565b60405180910390fd5b6000600184866106399190611d4b565b6106439190611d4b565b905080600654101561068a576040517f08c379a000000000000000000000000000000000000000000000000000000000815260040161068190611e17565b60405180910390fd5b8273ffffffffffffffffffffffffffffffffffffffff166108fc829081150290604051600060405180830381858888f193505050501580156106d0573d6000803e3d6000fd5b5080600660008282546106e39190611e37565b925050819055507f9c757f783dc641ab8f2768961860cec8ee492c532015539322d0ff43aed17301838260405161071b92919061195c565b60405180910390a15050505050565b600860019054906101000a900473ffffffffffffffffffffffffffffffffffffffff1681565b6005818154811061076057600080fd5b906000526020600020016000915054906101000a900473ffffffffffffffffffffffffffffffffffffffff1681565b60006007544210905090565b60008060018111156107b0576107af61188a565b5b600860009054906101000a900460ff1660018111156107d2576107d161188a565b5b14610812576040517f08c379a000000000000000000000000000000000000000000000000000000000815260040161080990611cfc565b60405180910390fd5b60008210158015610824575061271082105b610863576040517f08c379a000000000000000000000000000000000000000000000000000000000815260040161085a90611edd565b60405180910390fd5b600034116108a6576040517f08c379a000000000000000000000000000000000000000000000000000000000815260040161089d90611f49565b60405180910390fd5b60006002600084815260200190815260200160002090508060405180604001604052803373ffffffffffffffffffffffffffffffffffffffff16815260200134815250908060018154018082558091505060019003906000526020600020906002020160009091909190915060008201518160000160006101000a81548173ffffffffffffffffffffffffffffffffffffffff021916908373ffffffffffffffffffffffffffffffffffffffff16021790555060208201518160010155505060048390806001815401808255809150506001900390600052602060002001600090919091909150556000600360003373ffffffffffffffffffffffffffffffffffffffff1673ffffffffffffffffffffffffffffffffffffffff1681526020019081526020016000209050806040518060400160405280868152602001348152509080600181540180825580915050600190039060005260206000209060020201600090919091909150600082015181600001556020820151816001015550506005339080600181540180825580915050600190039060005260206000200160009091909190916101000a81548173ffffffffffffffffffffffffffffffffffffffff021916908373ffffffffffffffffffffffffffffffffffffffff1602179055503460066000828254610a9b9190611f69565b9250508190555050505050565b60048181548110610ab857600080fd5b906000526020600020016000915090505481565b60606001805480602002602001604051908101604052809291908181526020018280548015610b1a57602002820191906000526020600020905b815481526020019060010190808311610b06575b5050505050905090565b6060600360008373ffffffffffffffffffffffffffffffffffffffff1673ffffffffffffffffffffffffffffffffffffffff168152602001908152602001600020805480602002602001604051908101604052809291908181526020016000905b82821015610bcb57838290600052602060002090600202016040518060400160405290816000820154815260200160018201548152505081526020019060010190610b85565b505050509050919050565b60075481565b8060078190555050565b6001600860006101000a81548160ff02191690836001811115610c0c57610c0b61188a565b5b0217905550565b60018181548110610c2357600080fd5b906000526020600020016000915090505481565b6001806001811115610c4c57610c4b61188a565b5b600860009054906101000a900460ff166001811115610c6e57610c6d61188a565b5b14610cae576040517f08c379a0000000000000000000000000000000000000000000000000000000008152600401610ca590611cfc565b60405180910390fd5b816006541015610cf3576040517f08c379a0000000000000000000000000000000000000000000000000000000008152600401610cea90612031565b60405180910390fd5b600860019054906101000a900473ffffffffffffffffffffffffffffffffffffffff1673ffffffffffffffffffffffffffffffffffffffff166108fc839081150290604051600060405180830381858888f19350505050158015610d5b573d6000803e3d6000fd5b505050565b600860009054906101000a900460ff1681565b60026020528160005260406000208181548110610d8f57600080fd5b9060005260206000209060020201600091509150508060000160009054906101000a900473ffffffffffffffffffffffffffffffffffffffff16908060010154905082565b606060026000838152602001908152602001600020805480602002602001604051908101604052809291908181526020016000905b82821015610e9b57838290600052602060002090600202016040518060400160405290816000820160009054906101000a900473ffffffffffffffffffffffffffffffffffffffff1673ffffffffffffffffffffffffffffffffffffffff1673ffffffffffffffffffffffffffffffffffffffff16815260200160018201548152505081526020019060010190610e09565b505050509050919050565b60036020528160005260406000208181548110610ec257600080fd5b9060005260206000209060020201600091509150508060000154908060010154905082565b600080610ef4919061134f565b60005b600480549050811015610f54576002600060048381548110610f1c57610f1b612051565b5b906000526020600020015481526020019081526020016000206000610f419190611370565b8080610f4c90612080565b915050610ef7565b5060005b600580549050811015611001576003600060058381548110610f7d57610f7c612051565b5b9060005260206000200160009054906101000a900473ffffffffffffffffffffffffffffffffffffffff1673ffffffffffffffffffffffffffffffffffffffff1673ffffffffffffffffffffffffffffffffffffffff1681526020019081526020016000206000610fee9190611394565b8080610ff990612080565b915050610f58565b506000600860006101000a81548160ff021916908360018111156110285761102761188a565b5b0217905550565b60008060018111156110445761104361188a565b5b600860009054906101000a900460ff1660018111156110665761106561188a565b5b146110a6576040517f08c379a000000000000000000000000000000000000000000000000000000000815260040161109d90611cfc565b60405180910390fd5b6110ae61078f565b156110ee576040517f08c379a00000000000000000000000000000000000000000000000000000000081526004016110e59061213b565b60405180910390fd5b6017825114611132576040517f08c379a0000000000000000000000000000000000000000000000000000000008152600401611129906121cd565b60405180910390fd5b6001600860006101000a81548160ff021916908360018111156111585761115761188a565b5b021790555081600090805190602001906111739291906113b8565b5060005b825181101561130b57600083828151811061119557611194612051565b5b60200260200101511180156111c557506127108382815181106111bb576111ba612051565b5b6020026020010151105b611204576040517f08c379a00000000000000000000000000000000000000000000000000000000081526004016111fb9061225f565b60405180910390fd5b60006002600085848151811061121d5761121c612051565b5b6020026020010151815260200190815260200160002090506000818054905011156112f75760005b81805490508110156112f5576112e26001848154811061126857611267612051565b5b906000526020600020015483838154811061128657611285612051565b5b9060005260206000209060020201600101548484815481106112ab576112aa612051565b5b906000526020600020906002020160000160009054906101000a900473ffffffffffffffffffffffffffffffffffffffff166105b2565b80806112ed90612080565b915050611245565b505b50808061130390612080565b915050611177565b505050565b6000818154811061132057600080fd5b906000526020600020016000915090505481565b34600660008282546113469190611f69565b92505081905550565b508054600082559060005260206000209081019061136d9190611405565b50565b50805460008255600202906000526020600020908101906113919190611422565b50565b50805460008255600202906000526020600020908101906113b59190611468565b50565b8280548282559060005260206000209081019282156113f4579160200282015b828111156113f35782518255916020019190600101906113d8565b5b5090506114019190611405565b5090565b5b8082111561141e576000816000905550600101611406565b5090565b5b8082111561146457600080820160006101000a81549073ffffffffffffffffffffffffffffffffffffffff0219169055600182016000905550600201611423565b5090565b5b8082111561148b57600080820160009055600182016000905550600201611469565b5090565b6000819050919050565b6114a28161148f565b82525050565b60006020820190506114bd6000830184611499565b92915050565b600081519050919050565b600082825260208201905092915050565b6000819050602082019050919050565b6114f88161148f565b82525050565b600061150a83836114ef565b60208301905092915050565b6000602082019050919050565b600061152e826114c3565b61153881856114ce565b9350611543836114df565b8060005b8381101561157457815161155b88826114fe565b975061156683611516565b925050600181019050611547565b5085935050505092915050565b6000602082019050818103600083015261159b8184611523565b905092915050565b6000604051905090565b600080fd5b600080fd5b6115c08161148f565b81146115cb57600080fd5b50565b6000813590506115dd816115b7565b92915050565b600073ffffffffffffffffffffffffffffffffffffffff82169050919050565b600061160e826115e3565b9050919050565b61161e81611603565b811461162957600080fd5b50565b60008135905061163b81611615565b92915050565b60008060006060848603121561165a576116596115ad565b5b6000611668868287016115ce565b9350506020611679868287016115ce565b925050604061168a8682870161162c565b9150509250925092565b600061169f826115e3565b9050919050565b6116af81611694565b82525050565b60006020820190506116ca60008301846116a6565b92915050565b6000602082840312156116e6576116e56115ad565b5b60006116f4848285016115ce565b91505092915050565b61170681611603565b82525050565b600060208201905061172160008301846116fd565b92915050565b60008115159050919050565b61173c81611727565b82525050565b60006020820190506117576000830184611733565b92915050565b600060208284031215611773576117726115ad565b5b60006117818482850161162c565b91505092915050565b600081519050919050565b600082825260208201905092915050565b6000819050602082019050919050565b6040820160008201516117cc60008501826114ef565b5060208201516117df60208501826114ef565b50505050565b60006117f183836117b6565b60408301905092915050565b6000602082019050919050565b60006118158261178a565b61181f8185611795565b935061182a836117a6565b8060005b8381101561185b57815161184288826117e5565b975061184d836117fd565b92505060018101905061182e565b5085935050505092915050565b60006020820190508181036000830152611882818461180a565b905092915050565b7f4e487b7100000000000000000000000000000000000000000000000000000000600052602160045260246000fd5b600281106118ca576118c961188a565b5b50565b60008190506118db826118b9565b919050565b60006118eb826118cd565b9050919050565b6118fb816118e0565b82525050565b600060208201905061191660008301846118f2565b92915050565b60008060408385031215611933576119326115ad565b5b6000611941858286016115ce565b9250506020611952858286016115ce565b9150509250929050565b600060408201905061197160008301856116fd565b61197e6020830184611499565b9392505050565b600081519050919050565b600082825260208201905092915050565b6000819050602082019050919050565b6119ba81611603565b82525050565b6040820160008201516119d660008501826119b1565b5060208201516119e960208501826114ef565b50505050565b60006119fb83836119c0565b60408301905092915050565b6000602082019050919050565b6000611a1f82611985565b611a298185611990565b9350611a34836119a1565b8060005b83811015611a65578151611a4c88826119ef565b9750611a5783611a07565b925050600181019050611a38565b5085935050505092915050565b60006020820190508181036000830152611a8c8184611a14565b905092915050565b60008060408385031215611aab57611aaa6115ad565b5b6000611ab98582860161162c565b9250506020611aca858286016115ce565b9150509250929050565b6000604082019050611ae96000830185611499565b611af66020830184611499565b9392505050565b600080fd5b6000601f19601f8301169050919050565b7f4e487b7100000000000000000000000000000000000000000000000000000000600052604160045260246000fd5b611b4b82611b02565b810181811067ffffffffffffffff82111715611b6a57611b69611b13565b5b80604052505050565b6000611b7d6115a3565b9050611b898282611b42565b919050565b600067ffffffffffffffff821115611ba957611ba8611b13565b5b602082029050602081019050919050565b600080fd5b6000611bd2611bcd84611b8e565b611b73565b90508083825260208201905060208402830185811115611bf557611bf4611bba565b5b835b81811015611c1e5780611c0a88826115ce565b845260208401935050602081019050611bf7565b5050509392505050565b600082601f830112611c3d57611c3c611afd565b5b8135611c4d848260208601611bbf565b91505092915050565b600060208284031215611c6c57611c6b6115ad565b5b600082013567ffffffffffffffff811115611c8a57611c896115b2565b5b611c9684828501611c28565b91505092915050565b600082825260208201905092915050565b7f496e76616c696420537461746500000000000000000000000000000000000000600082015250565b6000611ce6600d83611c9f565b9150611cf182611cb0565b602082019050919050565b60006020820190508181036000830152611d1581611cd9565b9050919050565b7f4e487b7100000000000000000000000000000000000000000000000000000000600052601160045260246000fd5b6000611d568261148f565b9150611d618361148f565b9250817fffffffffffffffffffffffffffffffffffffffffffffffffffffffffffffffff0483118215151615611d9a57611d99611d1c565b5b828202905092915050565b7f536f7272792c2073797374656d20697320686176696e6720696e73756666696360008201527f69656e742066756e642e20506c6561736520636f6e746163742061646d696e00602082015250565b6000611e01603f83611c9f565b9150611e0c82611da5565b604082019050919050565b60006020820190508181036000830152611e3081611df4565b9050919050565b6000611e428261148f565b9150611e4d8361148f565b925082821015611e6057611e5f611d1c565b5b828203905092915050565b7f496e76616c6964206c6f7474657279206e756d6265722069732070726f76696460008201527f6564000000000000000000000000000000000000000000000000000000000000602082015250565b6000611ec7602283611c9f565b9150611ed282611e6b565b604082019050919050565b60006020820190508181036000830152611ef681611eba565b9050919050565b7f496e76616c696420627579696e672076616c7565000000000000000000000000600082015250565b6000611f33601483611c9f565b9150611f3e82611efd565b602082019050919050565b60006020820190508181036000830152611f6281611f26565b9050919050565b6000611f748261148f565b9150611f7f8361148f565b9250827fffffffffffffffffffffffffffffffffffffffffffffffffffffffffffffffff03821115611fb457611fb3611d1c565b5b828201905092915050565b7f496e73756666696369656e742066756e6420746f20626520776974686472617760008201527f6564000000000000000000000000000000000000000000000000000000000000602082015250565b600061201b602283611c9f565b915061202682611fbf565b604082019050919050565b6000602082019050818103600083015261204a8161200e565b9050919050565b7f4e487b7100000000000000000000000000000000000000000000000000000000600052603260045260246000fd5b600061208b8261148f565b91507fffffffffffffffffffffffffffffffffffffffffffffffffffffffffffffffff8214156120be576120bd611d1c565b5b600182019050919050565b7f43616e6e6f742066696e69736820726573756c742064726177696e672062656660008201527f6f7265206120646561646c696e65000000000000000000000000000000000000602082015250565b6000612125602e83611c9f565b9150612130826120c9565b604082019050919050565b6000602082019050818103600083015261215481612118565b9050919050565b7f496e76616c6964206c656e677468206f662064726177696e6720726573756c7460008201527f7320617272617900000000000000000000000000000000000000000000000000602082015250565b60006121b7602783611c9f565b91506121c28261215b565b604082019050919050565b600060208201905081810360008301526121e6816121aa565b9050919050565b7f4e756d626572206d757374206265206265747765656e203020616e642039393960008201527f3900000000000000000000000000000000000000000000000000000000000000602082015250565b6000612249602183611c9f565b9150612254826121ed565b604082019050919050565b600060208201905081810360008301526122788161223c565b905091905056fea2646970667358221220aa45b127a2fd2eff91550618ee67bda991a8777436ffc88a29899d7b062c1ae964736f6c63430008090033",
  "immutableReferences": {},
  "source": "pragma solidity ^0.8.9;\n\ncontract Lottery {\n    struct LotteryTicketByNumber {\n        address buyer;\n        uint256 amount;\n    }\n\n    struct LotteryTicketByAddress {\n        uint256 number;\n        uint256 amount;\n    }\n\n    enum State {\n        Ongoing,\n        Completed\n    }\n\n    event LotteryWinning(address addr, uint256 totalWinning);\n\n    // drawResult consists of which lottery number in which ranking\n    // starting from 1st, 2nd, 3rd, 10 special numbers and 10 consolation numbers\n    // so in total of 23 numbers\n    uint256[] public drawResults;\n\n    // winningRatio is array of winning ratio\n    // starting from 1st, 2nd, 3rd, 10 special numbers and 10 consolation numbers\n    uint256[] public winningRatios;\n\n    // mapping of what kind of numbers that which buyer address is buying for a certain amount\n    mapping(uint256 => LotteryTicketByNumber[]) public lotteryTicketsByNumber;\n\n    // mapping of which buyer address that what kind of number is being bought for a certain amount\n    mapping(address => LotteryTicketByAddress[]) public lotteryTicketsByAddress;\n\n    // records list of lottery numbers that are bought for \"lotteryTicketsByNumber\" for reset purpose\n    uint256[] public boughtNumbers;\n\n    // records list of buyer addresses that are bought for \"lotteryTicketsByAddress\" for reset purpose\n    address[] public boughtBuyerAddresses;\n\n    // totalFund reserved for contract to distribute prize to buyer and\n    // also collecting ticket fee from buyer\n    uint256 public totalFund;\n\n    // drawResultDeadline can be set by contract in order for testing\n    uint256 public drawResultDeadline;\n\n    // current state of smart contract\n    State public state;\n\n    // beneficiary is the person who can withdraw money from funding\n    address payable public beneficiary;\n\n    modifier inState(State expectedState) {\n        require(state == expectedState, \"Invalid State\");\n        _;\n    }\n\n    constructor(address payable _beneficiary, uint256[] memory _winningRatios) {\n        beneficiary = _beneficiary;\n        state = State.Ongoing;\n        winningRatios = _winningRatios;\n    }\n\n    function beforeDeadline() public view returns (bool) {\n        return block.timestamp < drawResultDeadline;\n    }\n\n    function finishResultDrawing(uint256[] memory results)\n        public\n        inState(State.Ongoing)\n    {\n        require(\n            !beforeDeadline(),\n            \"Cannot finish result drawing before a deadline\"\n        );\n        require(\n            results.length == 23,\n            \"Invalid length of drawing results array\"\n        );\n\n        state = State.Completed;\n        drawResults = results;\n\n        for (uint256 i = 0; i < results.length; i++) {\n            require(\n                results[i] > 0 && results[i] < 10000,\n                \"Number must be between 0 and 9999\"\n            );\n\n            LotteryTicketByNumber[] storage tickets = lotteryTicketsByNumber[\n                results[i]\n            ];\n            if (tickets.length > 0) {\n                for (uint256 j = 0; j < tickets.length; j++) {\n                    distributePrize(\n                        winningRatios[i],\n                        tickets[j].amount,\n                        tickets[j].buyer\n                    );\n                }\n            }\n        }\n    }\n\n    function distributePrize(\n        uint256 winningRatio,\n        uint256 amount,\n        address buyerAddress\n    ) public inState(State.Completed) {\n        uint256 finalAmount = winningRatio * amount * 1 wei;\n        require(\n            totalFund >= finalAmount,\n            \"Sorry, system is having insufficient fund. Please contact admin\"\n        );\n\n        payable(buyerAddress).transfer(finalAmount);\n        totalFund -= finalAmount;\n\n        emit LotteryWinning(buyerAddress, finalAmount);\n    }\n\n    function buyLotteryTicket(uint256 bettingNumber)\n        public\n        payable\n        inState(State.Ongoing)\n    {\n        require(\n            bettingNumber >= 0 && bettingNumber < 10000,\n            \"Invalid lottery number is provided\"\n        );\n        require(msg.value > 0, \"Invalid buying value\");\n\n        LotteryTicketByNumber[]\n            storage currentTicketByNumber = lotteryTicketsByNumber[\n                bettingNumber\n            ];\n\n        currentTicketByNumber.push(\n            LotteryTicketByNumber(msg.sender, msg.value)\n        );\n        boughtNumbers.push(bettingNumber);\n\n        LotteryTicketByAddress[]\n            storage currentTicketByAddress = lotteryTicketsByAddress[\n                msg.sender\n            ];\n\n        currentTicketByAddress.push(\n            LotteryTicketByAddress(bettingNumber, msg.value)\n        );\n        boughtBuyerAddresses.push(msg.sender);\n\n        totalFund += msg.value;\n    }\n\n    function putFunding() public payable {\n        totalFund += msg.value;\n    }\n\n    function withdrawFromFunding(uint256 amount)\n        public\n        inState(State.Completed)\n    {\n        require(totalFund >= amount, \"Insufficient fund to be withdrawed\");\n        beneficiary.transfer(amount);\n    }\n\n    function setCompletedState() public {\n        state = State.Completed;\n    }\n\n    function setDrawResultDeadline(uint256 _drawResultDeadline) public {\n        drawResultDeadline = _drawResultDeadline;\n    }\n\n    function getLotteryTicketsForBettingNumber(uint256 bettingNumber)\n        external\n        view\n        returns (LotteryTicketByNumber[] memory)\n    {\n        return lotteryTicketsByNumber[bettingNumber];\n    }\n\n    function getLotteryTicketsForAddress(address buyerAddress)\n        external\n        view\n        returns (LotteryTicketByAddress[] memory)\n    {\n        return lotteryTicketsByAddress[buyerAddress];\n    }\n\n    function getDrawResults() external view returns (uint256[] memory) {\n        return drawResults;\n    }\n\n    function getWinningRatios() external view returns (uint256[] memory) {\n        return winningRatios;\n    }\n\n    function reset() public {\n        delete drawResults;\n        for (uint256 i = 0; i < boughtNumbers.length; i++) {\n            delete lotteryTicketsByNumber[boughtNumbers[i]];\n        }\n        for (uint256 i = 0; i < boughtBuyerAddresses.length; i++) {\n            delete lotteryTicketsByAddress[boughtBuyerAddresses[i]];\n        }\n        state = State.Ongoing;\n    }\n}\n",
  "sourcePath": "/Users/limxinjong/Developer/Ethereum/Lottery/contracts/Lottery.sol",
  "compiler": {
    "name": "solc",
    "version": "0.8.9+commit.e5eed63a.Emscripten.clang"
  },
  "schemaVersion": "3.4.3",
  "updatedAt": "2021-12-16T14:39:00.166Z",
  "networkType": "ethereum",
  "devdoc": {
    "kind": "dev",
    "methods": {},
    "version": 1
  },
  "userdoc": {
    "kind": "user",
    "methods": {},
    "version": 1
  }
}